:100000000C942A000C943F000C943F000C943F0089
:100010000C943F000C943F000C943F000C943F0064
:100020000C943F000C943F000C943F000C943F0054
:100030000C943F000C943F000C943F000C943F0044
:100040000C943F000C943F000C943F000C943F0034
:100050000C943F0011241FBECFE5D8E0DEBFCDBF1A
:1000600010E0A0E6B0E0ECE2F8E002C005900D92EE
:10007000AA36B107D9F70E949B010C9414040C9482
:10008000000080E40E94AA018FE697E10197F1F752
:1000900000C0000084E00E947A028AE00E947A0296
:1000A00084E00E947A028EE00E947A0285E10E943A
:1000B0007A0284E00E947A0284E00E947A0280E060
:1000C0000E947A0288E00E947A0288E00E947A0206
:1000D00088E00E947A0288E00E947A0288E00E940A
:1000E0007A0288E00E947A0288E00E947A0280E028
:1000F0000E947A0280E00E947A0284E00E947A02E2
:100100008AE00E947A0281E10E947A0281E10E94E3
:100110007A028AE00E947A0284E00E947A0280E0F9
:100120000E947A0261E081E00E941A0380E00E944E
:100130007A0264E181E00E941A0380E00E947A0260
:1001400061E084E00E941A0380E690E00E940D03C3
:100150006FE084E00E941A0385E690E00E940D03A0
:10016000E12CF12CC1E001E011E0D2E057C06D2F8D
:100170008C2F0E941A0382E00E947A029FEF20E7F0
:1001800082E0915020408040E1F700C000006D2FD8
:100190008C2F0E941A0380E20E947A0264E1812F70
:1001A0000E941A0380E00E947A0260E082E00E94CE
:1001B000BA03811108C064E1812F0E941A0380E212
:1001C0000E947A0211E061E082E00E94BA0381118C
:1001D0000DC041E061E083E00E944D0364E1812FA6
:1001E0000E941A0380E20E947A0212E062E082E03A
:1001F0000E94BA03811101C0C1E063E082E00E9465
:10020000BA03811101C0C2E09FEF20E782E0915064
:1002100020408040E1F700C00000DF5FD43108F4E7
:10022000A6CF1C1317C0F39464E084E00E941A0365
:100230008DECF89E812D1124869586958695880FE4
:10024000982F990F990F890F9F2D981B892F805DEB
:100250000E947A02D3E152C06D2F8C2F0E941A03A4
:1002600082E00E947A022FEF80E792E021508040E6
:100270009040E1F700C000006D2F8C2F0E941A0300
:1002800080E20E947A0261E0802F0E941A0380E0DF
:100290000E947A0262E082E00E94BA03811108C0E3
:1002A00061E0802F0E941A0380E20E947A0201E03E
:1002B00063E082E00E94BA03811108C061E0802FF0
:1002C0000E941A0380E20E947A0202E060E082E06B
:1002D0000E94BA03811101C0C1E061E082E00E9486
:1002E000BA03811101C0C2E02FEF80E792E02150F4
:1002F00080409040E1F700C00000D150D23008F0BB
:10030000ABCF0C1332CFE39462E184E00E941A0376
:100310008DECE89E812D1124869586958695880F13
:10032000982F990F990F890F2E2D281B822F805DF2
:100330000E947A021ACF0E9446030E943D022FEFCC
:1003400089E698E1215080409040E1F700C000002C
:100350000E944100CF93C82F40E063E080E00E94FC
:100360004D034C2F407150E0559547955595479555
:10037000559547955595479560E081E00E944D035E
:100380004C2F407250E0559547955595479555959A
:100390004795559547955595479561E081E00E94B1
:1003A0004D034C2F407450E0042E452F000C441F89
:1003B000550B000C441F551F62E081E00E944D0365
:1003C0004C2F441F4427441F64E081E00E944D03EA
:1003D00041E062E080E00E944D0383EF91E00197ED
:1003E000F1F700C0000040E062E080E00E944D03B1
:1003F00083EF91E00197F1F700C000004C2F4170AE
:1004000060E081E00E944D034C2F427050E0559512
:10041000479561E081E00E944D034C2F447050E00D
:10042000559547955595479562E081E00E944D03AB
:10043000C8704C2F50E05595479555954795559563
:10044000479564E081E00E944D0341E062E080E076
:100450000E944D0383EF91E00197F1F700C0000087
:1004600040E062E080E00E944D0383EF91E001975D
:10047000F1F700C00000CF9108958FE097E2019757
:10048000F1F700C0000083E30E94AA0189EF90E029
:100490000197F1F700C0000082E30E94AA0189EFF2
:1004A00090E00197F1F700C0000088E20E94AA01E5
:1004B00089EF90E00197F1F700C000008CE00E9406
:1004C000AA0189EF90E00197F1F700C0000081E0F8
:1004D0000E94AA0189EF90E00197F1F700C00000A7
:1004E00082E00E94AA0189EF90E00197F1F700C035
:1004F00000000895CF93C82F41E063E080E00E94A0
:100500004D034C2F407150E05595479555954795B3
:10051000559547955595479560E081E00E944D03BC
:100520004C2F407250E055954795559547955595F8
:100530004795559547955595479561E081E00E940F
:100540004D034C2F407450E0042E452F000C441FE7
:10055000550B000C441F551F62E081E00E944D03C3
:100560004C2F441F4427441F64E081E00E944D0348
:1005700041E062E080E00E944D0383EF91E001974B
:10058000F1F700C0000040E062E080E00E944D030F
:1005900083EF91E00197F1F700C000004C2F41700C
:1005A00060E081E00E944D034C2F427050E0559571
:1005B000479561E081E00E944D034C2F447050E06C
:1005C000559547955595479562E081E00E944D030A
:1005D000C8704C2F50E055954795559547955595C2
:1005E000479564E081E00E944D0341E062E080E0D5
:1005F0000E944D0383EF91E00197F1F700C00000E6
:1006000040E062E080E00E944D0383EF91E00197BB
:10061000F1F700C00000CF910895CF93DF93EC0174
:1006200003C00E947A02219688818111FACFDF915E
:10063000CF9108959FEF980F9430C0F46531C0F4C6
:100640006623C1F0813019F48FE7860F16C082301F
:1006500019F48FEB860F11C0833019F483E9860FEC
:100660000CC0843049F483ED860F07C080E805C0D4
:1006700080E803C080E801C080E80E94AA0189EFF9
:1006800090E00197F1F700C0000008958FEF8ABB5A
:1006900087BB90EF94BB81BB0895813001F130F0AE
:1006A0008230B1F1833009F44CC00895413059F4DF
:1006B0002BB381E090E002C0880F991F6A95E2F7A2
:1006C000822B8BBB08952BB381E090E002C0880F92
:1006D000991F6A95E2F7809582238BBB089541307C
:1006E00059F428B381E090E002C0880F991F6A9501
:1006F000E2F7822B88BB089528B381E090E002C026
:10070000880F991F6A95E2F78095822388BB089528
:10071000413059F425B381E090E002C0880F991F61
:100720006A95E2F7822B85BB089525B381E090E0BE
:1007300002C0880F991F6A95E2F78095822385BBD6
:100740000895413059F422B381E090E002C0880F4F
:10075000991F6A95E2F7822B82BB089522B381E04C
:1007600090E002C0880F991F6A95E2F78095822376
:1007700082BB08958130D1F028F0823059F1833066
:10078000E9F150C049B381E090E09C01062E02C01F
:10079000220F331F0A94E2F7842F90E082239323E1
:1007A00002C0959587956A95E2F7089546B381E072
:1007B00090E09C01062E02C0220F331F0A94E2F73C
:1007C000842F90E08223932302C0959587956A95A4
:1007D000E2F7089543B381E090E09C01062E02C049
:1007E000220F331F0A94E2F7842F90E08223932391
:1007F00002C0959587956A95E2F7089540B381E028
:1008000090E09C01062E02C0220F331F0A94E2F7EB
:10081000842F90E08223932302C0959587956A9553
:0C082000E2F7089580E00895F894FFCFFF
:0A082C0050313A200050323A20000B
:00000001FF
